:1000000000800020BD010000CD2D0000852D0000E6
:10001000852D0000852D0000852D0000852D000018
:10002000852D0000852D0000852D0000CD2D0000C0
:10003000CD2D0000852D0000CD2D0000752D000078
:10004000CD2D0000CD2D0000CD2D0000CD2D0000C8
:10005000CD2D0000CD2D0000CD2D0000CD2D0000B8
:10006000CD2D0000CD2D0000CD2D0000CD2D0000A8
:10007000CD2D0000CD2D0000CD2D0000CD2D000098
:10008000CD2D0000CD2D0000CD2D0000CD2D000088
:10009000CD2D0000CD2D0000CD2D0000CD2D000078
:1000A000C12A0000CD2A0000CD2D0000CD2D00007A
:1000B000CD2D0000CD2D0000CD2D0000CD2D000058
:1000C000CD2D0000CD2D0000CD2D0000CD2D000048
:1000D000CD2D0000CD2D0000CD2D0000CD2D000038
:1000E000CD2D0000CD2D0000CD2D0000CD2D000028
:1000F000CD2D0000E9380000CD2D00002D4000007E
:10010000CD2D00009D450000CD2D0000CD2D00001F
:10011000CD2D0000CD2D0000CD2D0000CD2D0000F7
:10012000CD2D0000CD2D0000CD2D0000CD2D0000E7
:10013000CD2D0000CD2D0000CD2D0000CD2D0000D7
:10014000CD2D0000CD2D0000CD2D0000CD2D0000C7
:10015000CD2D0000CD2D0000CD2D0000CD2D0000B7
:10016000CD2D0000E5470000CD2D0000CD2D000075
:10017000CD2D0000CD2D0000CD2D0000CD2D000097
:10018000CD2D0000CD2D0000CD2D0000CD2D000087
:10019000CD2D0000CD2D0000CD2D0000CD2D000077
:1001A000CD2D0000CD2D0000CD2D0000CD2D000067
:1001B000CD2D0000CD2D0000CD2D0000564B4CF272
:1001C000205210B51A804DF628121A8000BF00BFC9
:1001D00002F000FE514B4FF010621A60504A9A60D4
:1001E000504ADA60504A136813F4807304D14F49BF
:1001F0000B604FF4A85313604D4B1A78110703D5C9
:100200001A7842F008021A704A4B4B492A221A7097
:100210004A4A4B4B8B4204D252F8040F43F8040B6A
:10022000F8E7484B484900228B4202D243F8042B9E
:10023000FAE74649464A002352F8230041F82300D2
:1002400001336F2BF8D1434B434A802103F8011B44
:100250009342FBD1414B3D4A1A60414B8A221A70AE
:10026000A3F5805324225A70A0221A709A7992071B
:10027000FCD59A79D406FCD43A4A937903F00C035E
:10028000082B384BF9D103221A7140225A719A79FE
:100290009006FCD5334A9179324B4906FBD5324A58
:1002A000324911600221516020221A709A7902F0BD
:1002B0000C020C2AFAD12E4B2E4A1A602E4B2F4AD2
:1002C0001A6000225A60072243F8042C2C4AC3F813
:1002D0000C2D62B602F076FF144B1B68DA0705D5C9
:1002E000284802F0D3FE284B284A1A60284B1B7876
:1002F0005B0609D5244C254B22689A4204D121483B
:1003000002F0C4FE0023236008F080FA02F068FDCA
:1003100002F0F6FCFEE700BF0E20054030800440EE
:10032000823F04000100002B10D0034014D0034092
:1003300002D0074000E00740AC96FF1FAC980000D9
:100340002087FF1FAC96FF1F309BFF1F0082FF1FFF
:100350000000000000E400E05FE400E008ED00E0E1
:100360000050064000400640448004400000030165
:1003700004800440C010050014E000E0FF76010096
:1003800000002020FBA4E4591CE00340A5C3945ABC
:1003900000F00740FFFFFFFFFFFFFFFFFFFFFFFF32
:1003A000FFFFFFFFFFFFFFFFFFFFFFFFFFFFFFFF5D
:1003B000FFFFFFFFFFFFFFFFFFFFFFFFFFFFFFFF4D
:1003C000FFFFFFFFFFFFFFFFFFFFFFFFFFFFFFFF3D
:1003D000FFFFFFFFFFFFFFFFFFFFFFFFFFFFFFFF2D
:1003E000FFFFFFFFFFFFFFFFFFFFFFFFFFFFFFFF1D
:1003F000FFFFFFFFFFFFFFFFFFFFFFFFFFFFFFFF0D
:10040000FFFFFFFFFFFFFFFFFFFFFFFFDEF9FFFF23
:1004100010B5054C237833B9044B13B10448AFF33E
:1004200000800123237010BDAC96FF1F0000000068
:10043000B0980000084B10B51BB108490848AFF34D
:1004400000800848036803B910BD074B002BFBD0A0
:10045000BDE81040184700BF00000000B096FF1F25
:10046000B0980000AC96FF1F0000000070B5134C60
:100470006378012B00D070BD114B1B6813F0010590
:1004800017D1104E02F02EFE7368C01AB0F57A7FB5
:10049000F1D302F027FE7368C01AB0F5FA6FEAD8FC
:1004A00002F020FE7368084A6570C01A83B2938117
:1004B000E1E702F017FE034B586070BDC896FF1FBE
:1004C000D0F00F406097FF1F1097FF1F70B5134CBF
:1004D000A378012B00D070BD114B1B6813F480551D
:1004E00004D002F0FFFD0F4B986070BD0D4E02F07E
:1004F000F9FDB368C01AB0F57A7FECD302F0F2FDD3
:10050000B368C01AB0F5FA6FE5D802F0EBFDB36836
:10051000054AA570C01A83B2D38170BDC896FF1F6B
:1005200010F00F406097FF1F1097FF1F70B5134C1E
:10053000E578012D00D070BD114B1B689B0404D5DC
:1005400002F0D0FD0F4BD86070BD0E4E02F0CAFD18
:10055000F368C01AB0F57A7FEDD302F0C3FDF368FB
:10056000C01AB0F5FA6FE6D802F0BCFDF368064A8F
:10057000E570C01A83B2138270BD00BFC896FF1F1A
:1005800010F00F406097FF1F1097FF1F70B5134CBE
:100590002379012B00D070BD114B1B6813F080052F
:1005A00004D002F09FFD0F4B186170BD0D4E02F09C
:1005B00099FD3369C01AB0F57A7FECD302F092FD51
:1005C0003369C01AB0F5FA6FE5D802F08BFD3369D4
:1005D000054A2571C01A83B2538270BDC896FF1FA9
:1005E000D0F00F406097FF1F1097FF1F70B5134C9E
:1005F0006379012B00D070BD114B1B6813F01005FF
:1006000004D002F06FFD0F4B586170BD0D4E02F02B
:1006100069FD7369C01AB0F57A7FECD302F062FD10
:100620007369C01AB0F5FA6FE5D802F05BFD736923
:10063000054A6571C01A83B2938270BDC896FF1FC8
:1006400090F00F406097FF1F1097FF1F2DE9F04FAC
:10065000704971480C68714D714E83B003783BB19D
:100660002B789B0704D00B6832689B1A182B04D890
:100670000B681B1BB3F57A7FF0D90125694C6A4ED4
:100680006570002729460D20E771A570E57025717A
:10069000657102F021FD2946062002F01DFD294664
:1006A000072002F019FD2946082002F015FD294611
:1006B000092002F011FD2946162002F00DFD3946F1
:1006C000172002F009FD04225849594DDFF88481B2
:1006D000022002F01BFC04225649032002F016FC03
:1006E00004221046544902F011FC0422534905200B
:1006F00002F00CFC042252490A2002F007FC2023DD
:100700003360504800F03CFF4F48DFF850C1B64618
:100710004FF47A711027042608222F604FF47A6371
:100720002E602A60CEF80020013BFDD107606346B1
:1007300006600260C8F80020013BFDD10139ECD110
:10074000424D4348298ADFF8E8B0374FDFF8F8A078
:10075000DFF8009189B200F08FFD80B2A880698A2D
:100760003B4889B200F05EFD80B2E88040F2DD36A1
:100770001AE0E179CBF800C00131CBF800E0E1717B
:10078000CBF800203A60013BFDD10320CAF800C03D
:10079000CAF800E0CAF80020C9F8002002F0C4FC42
:1007A000E3792C4AC82B26D0A988DFF87C8089B24F
:1007B000B1424FF008024FF0100C4FF0040E4FF40E
:1007C0007A6340F21A40D4D92049898889B281429B
:1007D000CFD81E49C98889B2B1F5AF6FC9D31D4BB7
:1007E00020221A600023E37102F07CFC1A4B18608F
:1007F00003B0BDE8F08F0D20019202F05FFC019A7A
:10080000202318B113600023E371AFE7C8F800306C
:10081000F9E700BF1098FF1F849AFF1F9C9AFF1FE3
:10082000289BFF1FC896FF1F84F00F406D04000037
:10083000C4F00F40CD0400002D0500008D05000020
:10084000ED0500008497FF1FC8F00F401097FF1FB1
:100850008097FF1F88F00F404897FF1F0077010027
:100860002DE9F04FADF53B7DA34DA44CA44EA54B17
:10087000A54AA649029506A80196009400F030FB0F
:10088000A04BA14AA14902950196009442A800F00C
:1008900027FB00230193029500947EA8994B9A4A66
:1008A0009A49DFF89892DFF89CB2DFF89CA200F03A
:1008B00017FB974B974D99899748012489B26C7023
:1008C000AC70EC702C716C7100F0ACFC904B80B291
:1008D0005880D989904889B200F0A4FC8C4B80B232
:1008E0001880198A8C4889B200F0C6FC884B80B207
:1008F0009880598A884889B200F094FC844B844AD5
:1009000080B2D8809B8A9BB2138113899BB2B3F5C6
:10091000E16F80F098817E4B1B899BB2B3F5E16F4C
:1009200014D87B4B1B8940F213529BB293420DD9D2
:1009300078487A4900220272764A022342A8D3718B
:1009400000F0ECFA754906A800F0E8FA704B1B8934
:1009500040F213529BB2934240F25E817048714C58
:1009600000F082FE6E4800F0F9FD07F0FDFCA0618A
:100970006B4800F0F9FD07F0F7FC6B4B9861684895
:1009800000F0F8FD07F0F0FC6849614B88615B8876
:10099000654800229BB2426040F2E45163486260C5
:1009A0008B4242605A4B40F22781588880B2A0F2B5
:1009B000E45007F0D9FC6060554B1B8840F2E452CC
:1009C0009BB29342524B40F20581188880B2C0F529
:1009D000BC60043007F0C8FC534B58604C4B9B88FC
:1009E00040F21A429BB2934210D9494BDB8840F245
:1009F000E4529BB29342464B40F2F281D88880B2D7
:100A0000A0F2E45007F0B0FC484B5860404B9B8884
:100A100040F24B429BB2934203D83D4A40F24C43D2
:100A200093803C4B1C7A1D46002C40F005823D4BC8
:100A30003F49586807F0A0FD3B4B3D4905465868C3
:100A4000384B5D6007F098FD374B39495860374B9C
:100A5000586807F091FD354B5860324923462A46C5
:100A6000896906A800F05EFA2E4A2A4B10602E49CA
:100A70002D4A1B7A5268896942A800F053FA2A4A23
:100A80002A491060294A8969526800237EA800F02B
:100A900049FA204B254ADB791060022B044600F00E
:100AA000DE8024494FF47A727D238A81CA810A82CA
:100AB0004A821C461D461F461E4A13815780958058
:100AC000D48002F00FFBD9F8003040F6D272C01A81
:100AD000904202D9184A2023136002F003FBD9F890
:100AE0000030164CC01AB0F57A6FF6D302F0FAFA5D
:100AF000134B20602AE000BF0000C84300002041E3
:100B000000805444000096430000C84200803B44EB
:100B10001097FF1FC896FF1F8097FF1F295C0F3D8E
:100B20008497FF1FF496FF1FD896FF1F2C97FF1F77
:100B30009A99993F4C97FF1F84F00F404897FF1FE9
:100B4000C4F00F40D496FF1FD0F00F40042018606F
:100B5000AC4808221A6010210260AB4A1960236871
:100B6000B2F90280B2F90470B2F90660B2F9085025
:100B7000A64C98441F441E441D44DAF80030D806A1
:100B80000CD4DAF80030590708D4DAF800301A0724
:100B900004D49F4B1B681B077FF58BAE02F0A2FAB3
:100BA0008045CBF800009B4B02D8082222601868D1
:100BB000874203D804232360DBF80000864203D871
:100BC00010232360DBF800008542D6D8924A082320
:100BD0001360D2E71B8840F2D3529BB293423FF698
:100BE000FDAE8E4B188880B2C0F5BA60043007F0B5
:100BF000BBFB8B4B5860F1E65B8840F2D3529BB253
:100C000093423FF6D9AE854B588880B2A0F2D450BB
:100C100007F0AAFB6060CFE6824A83480123D371C4
:100C200000F094FC7E4B58617F4800F091FC7F4BB4
:100C3000586106A800F0ECFA42A800F0E9FA7EA894
:100C400000F0E6FA8AE6022342A879492C72EB7199
:100C500000F064F9764906A800F060F95BE66F4B96
:100C60009B889BB2B3F5E16F03D96C4A4FF4E16303
:100C700093806A4B98886A4B1F686C4B80B21E68E1
:100C800007F072FB394607F0BBFA314607F0B6FAB7
:100C9000214607F0B5FA07F081FD604B9B8802B250
:100CA00098B2594B05929A8107F05EFB394607F0DE
:100CB000A5FA314607F0A2FA214607F09FFA07F09D
:100CC0006DFD564B9988504B0FFA80F8A3F80E80B3
:100CD00088B207F049FB394607F090FA314607F031
:100CE0008FFA214607F08CFA07F058FD4B4B998894
:100CF000454B05B21D8288B207F036FB394607F036
:100D00007FFA314607F07CFA214607F077FA07F0C0
:100D100045FD059A3C4B40F24B418A42D8BF40F218
:100D20004C4240F24B4106B2D8BF9A8188455E8260
:100D300004DC354940F24C43CB81984640F24B41AC
:100D40008D4203DC304B40F24C451D8240F24B415A
:100D50008E4203DC2C4B40F24C465E82B2F5FA6FB9
:100D600003DD294B4FF4FA629A81B8F5FA6F03DD7F
:100D7000254A4FF4FA63D381B5F5FA6F00F39E80EC
:100D8000284607F0F1FA4FF0785107F041FB07F0E1
:100D900005FD04B2B6F5FA6F73DC1B4BB3F90C001A
:100DA00007F0E2FA4FF0785107F032FB07F0F6FC5B
:100DB000154B07B2B3F90E0007F0D6FA4FF0785191
:100DC00007F026FB07F0EAFC05B2304607F0CCFA44
:100DD0004FF0785107F01CFB07F0E0FC03B26BE624
:100DE000DB8840F2D3529BB293423FF60FAE0B4BDF
:100DF000D88880B2A0F2D45007F0B6FA0D4B5860F4
:100E000004E600BF84F00F404C97FF1FC8F00F406E
:100E100090F00F40D496FF1F88F00F401097FF1FEF
:100E2000D896FF1FC896FF1F8497FF1FF496FF1FD9
:100E3000A69BC43B2C97FF1F234800F08BFB234B42
:100E40000146586807F0DAF9214907F095FB1F4B76
:100E500058601D4800F080FB1E4B0146586807F0A3
:100E6000CDF91B4907F088FB1A4B194958601A4BFA
:100E7000586807F081FB154B2C7A5D68164B58605B
:100E8000EBE5164A4FF4FA635382B2F90C0007F00F
:100E90006BFA4FF0785107F0BBFA07F07FFC0F4B6D
:100EA00007B2B3F90E0007F05FFA4FF0785107F080
:100EB000AFFA07F073FCFA2305B2FDE5074A4FF4D9
:100EC000FA631382FA2465E78497FF1FF496FF1FE5
:100ED0009A99993FD896FF1F2C97FF1F4C97FF1F99
:100EE0002DE9F04704468A4691469846089F099E98
:100EF0000A9D00F095F94FF07E50C4F8AC00C4F89C
:100F0000D8A0C4F8DC90C4F8E080C4F8E470C4F859
:100F1000E860C4F8D4502046BDE8F087C0F8EC1073
:100F2000704700BF2DE9F04F04468BB0002B00F056
:100F300057814FF07E53B14DB148E367C4F8843018
:100F4000C4F88050C4F88800104607F057F9D4F868
:100F5000EC106060054607F05BFA0146E06807F0B8
:100F60004FF9D4F8D010E060284607F047F9D4F8DC
:100F7000D820A06002F100432946A24800F0CCF935
:100F8000D4F8E020606002F10043E1689D4800F081
:100F9000C3F9D4F8DC20E06002F10043A16899486D
:100FA00000F0BAF9D4F8D820A0606168954800F044
:100FB000A3F9D4F8DC20C4F8B400A168914800F08B
:100FC0009BF9D4F8E020C4F8B800E1688D4800F03F
:100FD00093F9D4F8D820C4F8BC006168894800F0BF
:100FE0007BF9D4F8DC20C4F8C000A168854800F083
:100FF00073F9D4F8E020C4F8C400E168814800F037
:101000006BF9D4F8E420C4F8C80061687D4800F0AA
:101010004DF9D4F8C020D4F8C4A0C4F8CC000546DB
:1010200051461046009207F0F3F9D4F8B430D4F8E2
:10103000B8B06061804659461846019307F0E8F958
:10104000009AA06181465946104607F0E1F9019BDC
:10105000E06107461946504607F0DAF9009AD4F8DD
:10106000C81020620646104607F0D2F9019BD4F85A
:10107000BC1000906062184607F0CAF9594601900A
:10108000A062284607F0C4F951460290E062284663
:1010900007F0BEF9D4F87CA0206383465146404651
:1010A00007F0B6F9D4F8AC5000F10040294607F03B
:1010B000AFF951460390A064484607F0A9F92946C4
:1010C00007F0A6F9D4F880A00490E06451463846B1
:1010D00007F09EF9294607F09BF9514605902065D7
:1010E000304607F095F9294600F1004007F090F9E5
:1010F000D4F884A0069051466065009807F088F9FE
:10110000294600F1004007F083F95146A065099097
:10111000019807F07DF9294607F07AF9D4F888207C
:1011200007901146E0650298089207F071F9294688
:1011300007F06EF9089A206611468246584607F075
:1011400067F9294600F1004007F062F904996066EA
:101150000546039807F054F8059907F051F80699E9
:1011600007F04EF8099B194607F04AF8079907F06F
:1011700047F8514607F044F8294607F041F8494638
:101180000546404607F03CF8394607F039F8314645
:1011900007F036F8009907F033F8019907F030F8B6
:1011A000029907F02DF8594607F02AF8014628461B
:1011B00007F0E2F9D4F8E81007F02AF9D4F8D420BF
:1011C000C4F8B000014602F100430E4800F0A4F854
:1011D0006368C4F8B000C4F8D0300BB0BDE8F08F3D
:1011E000094E0A4DE6674FF07E500023C4F8805048
:1011F000C4F88400C4F88830A6E600BF3333B33E99
:101200003333333F8097FF1F6666A63F9A99193E96
:10121000002343608360C360C0F8B030704700BFF4
:10122000704700BF40F2DC539942A1F2DC5211DC5E
:101230000ED0104802FB02F380FB0310DB17A3EB78
:10124000A01303F2DC5302EBD27003EB6000704793
:1012500000207047074802FB02F380FB0310DB17F6
:10126000C3EBA01302EBD27003EB600000F2DC5082
:10127000704700BFD34D621008B5A1F57A7006F033
:101280002BFC04F0FDFC06A3D3E9002306F08AFC46
:101290000022054B06F0D4FA06F034FF08BD00BF6B
:1012A000000000A047A13F4000408F4010B5084615
:1012B000144607F0ADF8214600F10044084606F058
:1012C0009FFF0146204607F057F906F017FC04F08F
:1012D0005BFC06F03FFF10BD38B51046144606F023
:1012E0008DFF21460546204606F08AFF0146284626
:1012F00007F042F938BD00BF38B51046144606F075
:101300007FFF21460546204606F07AFF0146284623
:1013100007F032F938BD00BF70B50D4628461146BA
:1013200014461E4607F026FA40B93146284607F013
:1013300017FA08B9284670BD304670BD204670BD0A
:101340002DE9F047824608467B4990461E4607F045
:101350005FF8DAF8441006F053FF06F0CFFB0446BE
:101360000D463046754907F053F806F0C7FB04F008
:101370006FFB06460F4640466F4907F049F8DAF81A
:101380004C1006F03DFF06F0B9FB32468046894618
:101390003B462046294606F005FC02460B464046E1
:1013A000494606F04BFA06F0D5FECAF84C0006F0A6
:1013B000A5FB32463B4606F0F5FB22462B4606F0DF
:1013C0003FFA06F0C7FE0899CAF84400084607F03D
:1013D0001FF809990446084607F01AF80146204606
:1013E00006F00EFF0A990446084607F011F8014678
:1013F000204606F005FF06F081FB04F041FC06F0F4
:10140000A9FE00210446CAF85400099807F0BCF967
:10141000002800F083800998214607F097F90028FA
:101420005FD10021089807F0AFF9002872D0089822
:10143000214607F08BF9002842D1DAF85C40DAF84F
:1014400058004FF07E5106F0D9FE4FF07E51054610
:10145000CAF85800204606F0D3FE3949CAF85C00A5
:101460000446DAF84C0006F0D3FF36490646284613
:1014700006F0CEFF0146304606F0C2FE3049CAF8FB
:101480004C000546DAF8440006F0C2FF2D49064636
:10149000204606F0BDFF0146304606F0B1FE2A495F
:1014A000CAF844000446284606F0B2FF2649CAF8A6
:1014B0005000204606F0ACFFCAF84800BDE8F087AF
:1014C0002146089807F058F806F018FB04F004FBD2
:1014D00015A3D3E9002306F065FB06F03BFE0446A6
:1014E000ADE72146099807F047F806F007FB04F03E
:1014F000F3FA0FA3D3E9002306F054FB06F02AFE0B
:101500000021CAF858000898DAF8544007F03CF96E
:1015100000288CD1089B03F1004089E7099B03F167
:10152000004079E7AFF3008000000060E3A54CC005
:1015300000000060E3A54C40D02280387B138F353B
:101540003BDF7F3F6F12033A00007041806D7047B0
:10155000C06D7047806C7047006D704708B5C06BF8
:1015600007F01CF908BD00BF08B5806B07F016F93D
:1015700008BD00BF08B5006C07F010F908BD00BF3A
:101580002DE9F041344C677BD4F8108086B03846A2
:1015900000F068FA00250126304B0190394640469C
:1015A00003932A462B4604960295009500F06AFBA9
:1015B0002B4A20692B4900F009FB2046682100F0E6
:1015C000B5FC20466B2100F053F92946204600F077
:1015D0004FF9627B216900953346204600F04AFFAF
:1015E0002046682100F0A2FC20461B2100F040F9B3
:1015F0002046082100F03CF9627B216900953346C2
:10160000204600F037FF2046682100F08FFC20467E
:101610001C2100F02DF92046102100F029F9627BF1
:10162000216900953346204600F024FF20466821BA
:1016300000F07CFC20461A2100F01AF929462046C9
:1016400000F016F9627B216900953346204600F0D0
:1016500011FF06B0BDE8F081F897FF1FA0860100DA
:10166000801A0600006CDC02F0B5674D97B0682167
:101670000446284600F05AFC00263B21284600F08C
:10168000F7F86A7B296900960123284600F0F2FEEC
:101690000123697B2869009301960E23682200F0DC
:1016A00011FF2869D0F83831D0F834219B1A0D2B5E
:1016B000F8DD00F021FF0646286900F01DFF40EA32
:1016C00006206060286900F017FF0646286900F0D0
:1016D00013FF40EA0620A060286900F00DFF0646CF
:1016E000286900F009FF40EA0620E060286900F060
:1016F00003FF286900F000FF286900F0FDFE0646A0
:10170000286900F0F9FE40EA06202061286900F00F
:10171000F3FE0646286900F0EFFE40EA062060610D
:10172000286900F0E9FE0646286900F0E5FE226916
:10173000636940EA06201E33323A04306361226155
:10174000A06104A803F060FE07A803F05DFE0AA8EC
:1017500003F05AFE0DA803F057FE10A803F054FE44
:1017600013A803F051FE6169284A04A803F04EFE55
:1017700006F0FAFD2169254AE06307A803F046FE5A
:1017800006F0F2FD214AA063A1690AA803F03EFE1B
:101790001F490546E06B06F0EFFE1D49E063A06BB4
:1017A00006F0EAFEA063684206F0DEFD184906F086
:1017B000E3FE61682064154A0DA803F027FEA168C6
:1017C000E062124A10A803F021FEE1680F4A20638C
:1017D00013A803F01BFE4042606306F0C5FD0290B3
:1017E000206B276CA66BE56B06F0BEFD0190E06AEE
:1017F00006F0BAFD3B460090324629462046FFF7E8
:101800009FFD17B0F0BD00BFF897FF1F0AD7233C1C
:10181000000083420369D3F83801D3F83431C01A89
:10182000704700BF0369D3F83411D3F838219142CF
:1018300008D2D3F83421511C1A44C3F8341192F859
:10184000300070474FF0FF30704700BF0369D3F896
:101850003411D3F8382191423DBFD3F834219B187D
:1018600093F830004FF0FF30704700BF704700BF63
:101870000369D3F84422B2F5817F03D901230371B0
:1018800000207047D3F8442210B49C180132C3F8EA
:10189000442284F83C11012010BC7047F0B4056963
:1018A000D5F84432B3F5817F20D8D5F84462D5F815
:1018B0004442C6F581760136964205F59E7302D202
:1018C0000127324607714AB1013C23448D1811F8B3
:1018D000014B03F8014FA942F9D10569D5F844320B
:1018E0001344C5F844321046F0BC7047012303711D
:1018F000F0BC0020704700BF38B503690A4A026097
:1019000093F84822022A044601D0204638BDD3F875
:101910006452002DF9D0284601F0D8F9284601F08C
:10192000F9F9204638BD00BF7C9200002DE9F04750
:10193000002B40F2646740F2036640F203240BBFC1
:10194000B846B0464FF41979A1469DF8207071BB96
:10195000012A31D80C46164605469A46AFB190F892
:101960004B2290F84A32002A0CBF00270227032B93
:101970000BD8DFE803F0473C310239461F2001F065
:10198000ABFB39461A2001F0A7FBC4B9002E44D0A6
:10199000012E05D12B4A2C4BC2F80090C3F80090C1
:1019A00085F84A6285F84BA20120BDE8F08701293D
:1019B00002D1941E012CCDD90020BDE8F087012C66
:1019C000EED1022E36D0032EEAD1204A204BC2F8A7
:1019D0000080C3F80080E3E739461E2001F07CFB5D
:1019E00039461D2001F078FB002CE8D1CEE73946BE
:1019F000122001F071FB3946132001F06DFB002C21
:101A0000DDD1C3E73946112001F066FB39461020CD
:101A100001F062FB002CD2D1B8E70E4A0E4BC2F89F
:101A200000900120C3F8009085F84A6285F84BA227
:101A3000BDE8F087094A0A4BC2F80090C3F800904D
:101A4000AEE700BF0CA0044008A0044000D0044052
:101A500004D0044004A0044000A004402CB0044082
:101A600028B0044001280CBF02200120704700BFAD
:101A7000F8B5C3681B789B0610D483680D46802197
:101A80001970C3681221197090F84932012B04466D
:101A900006D08AB980F848220120F8BD0020F8BDA0
:101AA0001A4675B9454B4FF080711960022A0FD064
:101AB000012084F84802F8BD531E012BF1D9012002
:101AC000F8BD012DF2D13D4B4FF000711960EDE7EB
:101AD000D4F86462002E65D03379102B2ED0002DFF
:101AE00039D132683649938B364F43F008039383DC
:101AF0003279531102F110009B0041F8207003F17C
:101B0000604303F56143012102F01F0201FA02F272
:101B100031681A608B8B43F002038B83337903F1B6
:101B2000804303F5043396221D701A7000220223AD
:101B300084F85A2284F848320120F8BD304601F07A
:101B4000C5F8304601F0E6F800230120C4F86432FD
:101B500084F84802F8BD012DE8D132681849938B0A
:101B6000194F43F0080393833279531102F11000A7
:101B70009B0041F8207003F1604303F5614302F0DC
:101B80001F02954032681D60938B43F002039383DC
:101B9000337903F1804303F5043300219722197050
:101BA0001A70C3E7082001F0B3F8314607463E46F5
:101BB00001F028F8C4F864728EE700BF00E100E08D
:101BC0000082FF1FC12A0000CD2A0000F0B5284E78
:101BD000DFF8ACE0A6FB0143A6FB02429E093702F8
:101BE0007546960914240023B7FBF6F604E001338A
:101BF000382B1BD055F8044F22029642F7DA83BBEC
:101C000014241C4A4568B1FBF4F491422B70C0F8CF
:101C10004C4207D8184B8269A3FB0131C1F307512D
:101C20001170F0BD836904221A70F0BD00242246B1
:101C30004FF470274FF470654FF0370CB21AF71B52
:101C4000002A87EAE776A6EBE776B8BF52429642CB
:101C500002DD0A4AD35CD4E7084B2C4613F80C305B
:101C6000CFE703F1FF3C5EF82C502F02E6E700BF00
:101C7000D34D6210FF6BDC02819F5E167C930000E7
:101C80009C920000F0B583B0044696469DF8200073
:101C90009DF824209DF828709DF830600D4689BB82
:101CA000DFF8DCC0DCF8001041F04001CCF8001097
:101CB000002184F849E284F85112BEF1000F33D1BB
:101CC000636920211970236883F800E0E36983F8D1
:101CD00000E000213B46009120462946FFF726FE02
:101CE0000B9A26492046FFF771FF324629462046C7
:101CF000FFF7BEFE94F8493293B3A368C0221A706E
:101D000003B0F0BD0129D3D1DFF874C0DCF80010B6
:101D100041F08001CCF80010002184F849E284F8F9
:101D20005112BEF1000FCBD0616970B14FF0280E97
:101D300081F800E09842216817D95B00DBB20B7094
:101D40004000E369C0B21870C3E74FF0200E81F87D
:101D500000E021685B00DBB20B70E3691870B8E744
:101D6000A36880221A7003B0F0BD4000C0B20870B2
:101D70005800E369C0B21870ABE700BF006CDC022A
:101D80003480044090F84A32032B39D82DE9F043CF
:101D9000224C234A14F80380D75C83B0B8F1000FBB
:101DA0002BD057B390F84B32002B8946044614BF12
:101DB00002210021404601F08FF90121384601F04F
:101DC00077F90121384601F087F90B25A026404616
:101DD00001F074F9013D20B915F0FF0501463846C0
:101DE0000FD1002084F8510294F84B3294F84A2223
:101DF000009049462046FFF799FD03B0BDE8F08307
:101E0000704701F055F93346013BFDD101213846B9
:101E100001F04EF93346013BFDD1D8E7989200001E
:101E2000949200002DE9F041154604460F4698466D
:101E300001F058F90DB9D4F8685201F053F9A368CC
:101E40001A789106064609D5B4221A7094F84832D9
:101E5000013B012B42D90120BDE8F081E5B9E368DF
:101E60001B7803F0200303F0FF02002BF6D1A368D8
:101E700084F84922B0221A70A3681A78920614D501
:101E80001B7803F0200303F0FF00002BDED10423B6
:101E900084F85132BDE8F08101F024F9801B8542BD
:101EA000DDD8A3681A789206EAD439462046FFF7AF
:101EB00069FFE3681B7803F0200303F0FF0223B9F6
:101EC000A36884F84922B0221A70A3681B7803F033
:101ED000200303F0FF00002BB8D1D8E700F098FFF3
:101EE00097B1012F10D10F4B1B788342B3DB0F2822
:101EF00013DD67B1012F0AD1A0F11003094ADBB24B
:101F000013703846BDE8F081074B1B78EDE7A0F170
:101F10001003054ADBB213709DE7012088F800002A
:101F2000BDE8F08119E400E018E400E0036949002D
:101F300083F83C11036900220121C3F844120271A5
:101F400083F85122704700BF2DE9F043044683B067
:101F5000D0F8440200258DF8075070B190461E4617
:101F60000BB9D4F86862E36812221A7020460DF1AA
:101F700007033246FFF756FF10B903B0BDE8F08300
:101F800094F84832B3B19DF807209AB9591E012937
:101F9000F3D80125022B84F8515284F85082C4F8FA
:101FA00040225ED0A368F0221A70236994F83C2185
:101FB0001A70E2E701F096F8012384F85132D4F860
:101FC000445284F850820746EDB104F23B180025D4
:101FD0004FF0020936BB236918F8012F1A70E26826
:101FE00013789807FCD582F80090E2681378DBB28A
:101FF000D9061DD4DB0724D4D4F844320135AB42D2
:10200000E8D894F85082D4F84432AB4225D904235E
:1020100084F85132B8F1010FA3680CBF8022B022BE
:102020001A70AAE701F05EF8C01B8642D3D8E8E731
:102030001023072184F851121370A36880221A70AC
:102040009BE735B1062384F85132A36880221A70C9
:1020500093E7052384F85132F7E7002384F85132DF
:10206000D8E7D4F84432042B9CD9D4F8641284F80D
:102070005A520E68D4F84432F2710868357104F58A
:102080009F7772713760057242728272C2720D68F8
:10209000033BEB83096818465B42EB60C882D4F8C7
:1020A000641220690B68B0F1804F9A7118611A753B
:1020B0005A750B6801D39A6832B9002201205A720E
:1020C0009A72DA7218720B6800221A765A769A7629
:1020D000DA7667E72DE9F04383B000258DF80750E5
:1020E0009DF828700B9E2BB1B3F5827F05D3082392
:1020F00080F8513203B0BDE8F083C0F83451C0F825
:102100005432C0F838510EB9D0F86862C3689046AE
:1021100012221A700DF1070332460446FFF782FEC1
:102120000028E7D094F84832C3B19DF80720AAB937
:10213000591E0129DED802218B4284F8507284F89E
:10214000511200F0EA80A268F02111704FEA4803B2
:1021500043F001032269DBB21370CBE700F0C2FF4A
:102160004FEA4803226984F8507243F00103DBB25E
:10217000022184F851121370E2680546137898071B
:10218000FCD502231370E2681378DBB2D90608D4B9
:10219000DA070FD5A3680521802284F851121A703E
:1021A000A8E71023072184F851121370A368802236
:1021B0001A709FE7D4F854320322012BA36884F8E5
:1021C00051220CBFA822A0221A7023691B78022773
:1021D0004FF000084FF0B009D4F83821D4F8543249
:1021E0009A4287D294F85132032B83D1E268137854
:1021F0009B07FCD51770002E46D1D4F83831D4F89F
:10220000542202339A422ED13346A268A82111707B
:10221000D4F83811D4F854220131914265D3A26820
:1022200084F8598282F8009022691078D4F8382115
:10223000A1180132C4F8382181F83000002B4CD1AC
:1022400094F8503284F85182012BC5D1002320220A
:10225000013AFDD1A26880211170002BBCD001236E
:1022600084F85932B6E7D4F838310133934244D276
:10227000002322691078D4F83821A1180132C4F85B
:10228000382181F83000E8E700F02CFFD4F838312D
:10229000D4F85422401B991C86428CBF0023012392
:1022A0009142B2D08642DED894F859320BB901235C
:1022B000ABE7D4F8381101318A421AD8A36884F800
:1022C000598283F8009023691978D4F83831E218DC
:1022D0000133C4F8383182F8301094F850320422B7
:1022E000012B84F85122B2D0B9E7002BC1D094F869
:1022F0005932002BE2D10123BBE7A36884F859824D
:1023000083F8009023691978D4F83831E218013342
:10231000C4F8383182F8301092E7D4F85432042BE4
:102320007FF611AFD4F8641220690B68012584F898
:102330005A52B0F1804FDA7118601A715A710B68F5
:1023400001D39A6832B9002201205A729A72DA7265
:1023500018720B68D4F86402D4F85412056800228D
:102360001A735A739A73DA73AA7103686A7504F15F
:1023700030062E6101262E755A729A72DA721E721A
:102380004B1E0168CB8300681A465B428B61C28298
:10239000D9E600BF70B51546044600F0A3FE0DB99E
:1023A000D4F8685200F09EFE064694F85132002B95
:1023B00050D094F85132052B4CD094F85132062B62
:1023C00048D094F85132072B44D094F85132042B62
:1023D00040D094F85132082B3CD0002DE5D000F0CD
:1023E00081FE801B8542E0D800F07CFE801B854288
:1023F00032D894F84832022B2ED194F85A325BB37B
:1024000094F851329BB194F85132052B0FD094F8C7
:102410005132062B0BD094F85132072B07D094F889
:102420005132042B03D094F85132082BE8D1042305
:1024300084F8513294F85132012B11D1042384F8DD
:1024400051328023013BFDD194F85102B0FA80F063
:10245000400970BD002DC7D194F85132012BEDD049
:1024600094F85132022BE9D094F85132032BE8D181
:10247000E4E700BF70B50C46154606461A462946E5
:10248000049B2046FFF760FD049A29462046FFF78B
:1024900081FF336993F85132043B042B0CD8DFE8F9
:1024A00003F0030907030500042070BD012070BD7F
:1024B000032070BD022070BD3079003018BF0120AC
:1024C00070BD00BFF0B583B09DF8206013B9002047
:1024D00003B0F0BD099F04460D468DE8C000FFF72C
:1024E000F9FD099A29462046FFF754FF0028EED04F
:1024F000D4F8380103B0F0BDD0F83421D0F8383129
:102500009A4208D2D0F834315A1C0344C0F834211E
:1025100093F8300070474FF0FF307047F8B5C1684E
:1025200087680D783B78DBB203F02002EDB212B37E
:1025300013F0100F90F85A3277D0022B00F0D280AF
:1025400090F85A32032B00F0CD8090F85132012BD5
:1025500000F0D18190F85132DBB2022B00F0028200
:1025600090F85132042B00F0878180233B70C368C0
:1025700002221A70F8BD02F0FF06EA06044623D4D0
:1025800005F0400202F0FF0012BB03F0100303F05D
:10259000FF06002B7CD015F0010540F06281D4F8D5
:1025A0004022D4F844329A4207D2D4F840325A1C1E
:1025B0002344C4F8402293F83C5123691D70A3685A
:1025C000D0221A70E16868E010236F060B7028D5DE
:1025D00094F851320A2B00F0DA8005F0040505F07A
:1025E000FF03002D5CD0A3680021D022092084F8CD
:1025F0005102C4F844121A702269D4F86012137898
:102600005B0884F8523209B188472269D4F8443211
:10261000002B00F02E8194F83C6116700123C4F861
:102620004032E36802221A70F8BD022B00F0888065
:1026300090F85A32032B00F08380D0F83831D0F86C
:1026400054220233934200F0078190F85132042B58
:1026500000F0FD80D0F838310133934280F0D5800E
:1026600090F85132042B00F0CB80D0F83831026959
:10267000591CC0F838110344127883F8302090F8C0
:102680005132042B00F02E81C36802221A70F8BD6B
:1026900094F851320A2B00F0448102230B70F8BDEC
:1026A00094F84A2284F85832012A00F06B81002AFB
:1026B00000F06281022A00F09381032A00F00D816C
:1026C000A368C0220A20002184F85102C4F83811FE
:1026D0001A7023691B785B0884F85232E36802227F
:1026E0001A70F8BDD0F8642213689B8B1C0603D5C2
:1026F00090F85A32022B78D090F85A32032B52D0ED
:10270000BA4B12791C68012393402342C5D0B84BC1
:10271000B8491A70D0F8642212790A700023E906C9
:1027200080F85A3240F1D780C2681221072480F81D
:1027300051421170826880211170C0F84032F8BD9A
:10274000D0F864321A68928B120603D590F85A2298
:10275000022A3FD090F85A22032A00F09480A34C1A
:102760001A79246801239340234296D0A149A04BB3
:102770000A70D0F8642212791A70826800238021CE
:1027800080F85A3280F851321170C16885E7D4F868
:102790005C32002B3FF421AF0022C4F83421D4F87E
:1027A0003801984719E70B781D06FCD5924B127932
:1027B0001A70002380F85A32D0F844320269013B83
:1027C000C0F84032D0F84032034493F83C311370E3
:1027D000C16862E7864A1B7913708368E8221A7021
:1027E0000323C16880F85A3257E7814B12791A7077
:1027F0008368F0221A700323C16880F85A324CE7CC
:1028000090F85932002B3FF430AF90F8512200235A
:10281000042A80F8593201D080F851328368B022FE
:102820001A70D0F838310269591CC0F838110344C5
:10283000127883F8302090F85032012B7FF41FAFCC
:102840002023013BFDD1836880221A7017E790F89E
:102850005932002B7FF4FEAEE8233B70D0F85422AF
:10286000F8E6C0233B702369E1681B7884F85102C5
:1028700013E784F83C31D0E690F85032012B4DD06C
:10288000B0233B7000E75C4A1B791370002380F88B
:102890005A3290F85122042A18BF80F851328368C6
:1028A000B0221A70D0F854320269013BC0F83831B6
:1028B000D0F83831591CC0F838110344127883F825
:1028C000302090F85032012B05D12023013BFDD15F
:1028D000836880221A70C168DFE648491F2000F033
:1028E00015FBEDE690F85932002B7FF4CDAE0123B5
:1028F00080F85932C8E605F0100303F0FF02002B00
:1029000046D115F0010551D080F85A22D0F8403256
:10291000002B40F08F80052380F8513280233B70DC
:10292000B2E694F84A2284F85862012A00F09280B4
:10293000002A78D0022A00F09480032A00F0A480B4
:1029400023691B78D4F83821B2F5817FDBB23FF6DA
:10295000A4AED4F83821A0180132C4F8382180F888
:1029600030309AE6EC0632D4E9074BD505228023B5
:1029700080F851223B7087E603222149112000F0A4
:10298000C5FA9DE603221E49122000F0BFFA97E621
:1029900000231222072480F85A3280F851420A702C
:1029A000826880211170C0F84032F8BDD0F8403202
:1029B0000133C0F84032D0F8442293423ED390F81D
:1029C000503280F85152012B7FF45AAFA6E707220C
:1029D000122380F851220B70836880221A70F8BD90
:1029E000032206491E2000F091FA69E62C8000407F
:1029F0001F8000401E8000401C8000408D2B000086
:102A0000812B000090F85A22012A31D0D0F854329C
:102A1000012B0CBFE823E023032280F851223B70F6
:102A200003691B7830E623490322112000F06EFA77
:102A3000E16885E7062380F851326FE790F85A3253
:102A4000012B27D0D0F840320269034493F83C317F
:102A5000137019E617490322122000F057FAE168B3
:102A60006EE7154903221E2000F050FAE16867E77F
:102A7000E12280F85A323A70D0F864220F4B127972
:102A80001A7003691B78FFE50B491F2000F03EFA1E
:102A9000E16855E70222F12380F85A223B70D0F812
:102AA0006422064B12791A70036990F83D211A705E
:102AB000EAE500BF812B00008D2B00001B80004049
:102AC00000210148FFF72ABD0088FF1F01210148AE
:102AD000FFF724BD6C8AFF1FC3681B7803F0200337
:102AE000CBB903F0FF0290F84A32012B10B504462F
:102AF00080F8512227D053B3022B32D0032B37D08A
:102B0000D4F85C32CBB10022C4F83421D4F83801B7
:102B1000BDE81040184790F858320133DBB2012B62
:102B200080F858320AD990F84A32012B24D093B158
:102B3000022B13D0032B18D0704710BD90F84932E8
:102B4000012BF0D1F8E7122000F05CFAD8E7112051
:102B500000F058FAD4E7112000F054BA1E2000F01B
:102B600051BA1E2000F04EFACAE71F2000F04ABA00
:102B70001F2000F047FAC3E7122000F043BA00BF5D
:102B800000210148FFF7A8BF0088FF1F012101486D
:102B9000FFF7A2BF6C8AFF1F2DE9F843134BDFF844
:102BA0005C90DFF85C80124E124D1E6000244FF4E2
:102BB0007A774A4641461C711C739F6018465C73C5
:102BC0001D6105F011FE0C4B4FF0010E05F51B7554
:102BD0001C711C7383F80DE04A46414618461D617E
:102BE0009F601E60BDE8F84305F0FEBDF897FF1F2B
:102BF0007C9200000088FF1FE497FF1FFC87FF1FE7
:102C0000F9180000F0B572B699B902688AB1037973
:102C10000F2B0ED8274C218841FA03F5ED070AD572
:102C200003F1007303F59063B2EB431F03D162B667
:102C3000F0BD204C2188002341FA03F212F001027A
:102C400007D00133102BF7D162B600220371026066
:102C5000F0BD01259D402943218062B6164E174DD7
:102C6000174FDFF864E0D9B20171346844F0020410
:102C700034602C6844F002042C60A6F5802682247F
:102C8000A5F5802503F100733C6003F59063223EB7
:102C9000243D0C4C8EF800105B01317029702170BE
:102CA00003601A605A609A60DA601A615A619A6128
:102CB000DA61F0BD0C98FF1F408004403C80044066
:102CC000008000401F8000401A80004003790F2BD5
:102CD00011D8094A10B4137072B6084904790A88E9
:102CE0000123A34022EA03030B8062B610220023D3
:102CF00010BC0271036070471A8000400C98FF1FDF
:102D000008B5FDF7A3FCFDF7ABFD00F005F8FAE709
:102D100005F0A4BD05F0AABD10B5154C237803B18C
:102D200010BD0123237002F065FA58B900F05AFD76
:102D300070B901F0F9F888B901F0C2FBA0B900231D
:102D4000237010BD02F09CFD00F04CFD0028F0D077
:102D500002F00CFC01F0E8F80028EDD002F0BAFC1B
:102D600001F0AEFB0028EAD002F068FDE7E700BF03
:102D70000E98FF1F024A136801331360704700BFAB
:102D80001098FF1F08B5104C08E0236859050DD4B2
:102D900023681A050FD42368DB0411D42368580371
:102DA000F3D501F01FFD23685905F1D500F09CFD16
:102DB00023681A05EFD501F039F92368DB04EDD556
:102DC00001F0ECFBEAE700BF3480044008B5FFF7F0
:102DD000D9FF00BF014B10221A8070470020054028
:102DE000704700BF094908B50B6830B16A461844FE
:102DF000A2F58052904202D20860184608BD05F044
:102E0000FFFC0C2303604FF0FF3008BDD88CFF1F80
:102E1000EFF3138070B9EFF310836BB9EFF3058212
:102E20005AB94FF48070EFF311832BB1984228BF49
:102E3000184670474FF0FF3070470F2A01D81846E8
:102E4000F1E7014BD05CEEE7F0E300E0704700BF34
:102E500010B40F4B53F8302092F880422CB101236C
:102E600069B182F8803010BC704703EBC0035B6827
:102E70001A6841B922F002021A6010BC704782F849
:102E8000003110BC704742F003021A6010BC70475A
:102E9000B49300001C4A02EBC00301295B6811D007
:102EA00004291BD052F83000002280F8802229B17A
:102EB000022920D0032922D01A6070474FF4807273
:102EC0001A60704752F830004FF4A27280F88012F6
:102ED0001A601A6822F020021A60704752F8301007
:102EE0004FF4A272012081F880021A601A6842F041
:102EF00020021A60704740F203121A6070474FF4C4
:102F000081721A60704700BFB4930000212817D85F
:102F1000F8B5042A13D8DFE802F0494C4F144600F4
:102F20002C4872B6236823F4702343F08072C4F3F4
:102F300084011643236040F82150266062B6F8BD34
:102F400070474FF41026244B03EBC0030D465C681A
:102F5000216811F4E06134D0204B214A2149C3F8A3
:102F60009C2104F140422048C3F8A411A2F592210B
:102F70001E4FC3F8A0017C291D48C3F8A871C3F8EF
:102F8000AC01CDD9A2F594237C2B18D9A2F59623B8
:102F90007C2B19D9A2F598237C2B17D9A2F59A225C
:102FA0007C2A15D9F8BD4FF43026CCE74FF4002623
:102FB000C9E74FF44026C6E74FF42026C3E70D4883
:102FC000AFE7FFF767FFC7E70B48AAE70B48A8E79B
:102FD0000B48A6E7DC8CFF1FB49300000082FF1FA4
:102FE000D187FF1F7987FF1FA587FF1F4D87FF1F11
:102FF0002187FF1F148DFF1F648DFF1F948DFF1FFE
:10300000B48DFF1F1A4B03EBC00010B4426802F1ED
:103010004043A3F592217C2905D9A3F594217C296D
:1030200013D8144900E0144972B61368134C23F006
:103030008773C2F3840023F4803343F080731360FA
:1030400041F8204062B610BC7047A3F596217C2958
:1030500009D9A3F598217C2907D9A3F59A237C2BBC
:10306000F1D80749E0E70749DEE70749DCE700BF99
:10307000B4930000148DFF1FDC8CFF1F4D2E000049
:10308000B48DFF1F648DFF1F948DFF1F30B4054B5F
:10309000054D064C002210211A602A60206019603C
:1030A00030BC704714D0034004D0034000D003402C
:1030B000212801D8FFF7CCBE704700BF212806D8D1
:1030C000044B53F8303093F80002C0B27047002030
:1030D000704700BFB4930000212801D8FFF7DABE83
:1030E000704700BF72B60C490C4B0D4A1B6808684C
:1030F000126862B6520102D5322B88BF01300949ED
:10310000C3F5BB334FF47A72FF33A1FB031302FB09
:1031100000F000EB931070471098FF1F18E000E0DC
:1031200004ED00E0ABAAAAAA2DE9F843054672B661
:10313000204F214B214A1B683C68126862B652013D
:1031400002D5322B88BF013495B3C3F5BB331C4E77
:10315000DFF86490DFF86480FF334FF47A72A6FBE7
:10316000031302FB04F404EB931472B6D9F80010B5
:103170003A68D8F800E062B6C1F5BB33FF33A6FB6E
:1031800003031EF0806FC4EB93134FF47A7002D0E8
:10319000322988BF013200FB0233B3F57A7F04D3B2
:1031A000013D05D004F57A74DFE7FFF7B5FDDCE7F4
:1031B000BDE8F8831098FF1F18E000E004ED00E080
:1031C000ABAAAAAAF8B52D4B2D49DFF8D0E0DFF85D
:1031D000D0C02C4E2C4D2D4C2D4A2E4F4FF40000BC
:1031E00018604FF0807018604FF0007018604FF05A
:1031F000806018604FF0006018600020086028238D
:103200004BF6FF71CCF80010CEF80030336013603D
:103210002B6023603B60B3629362092245F8242C43
:10322000C4F8D80F05F57F65C7F8D41F07F5FF2749
:1032300007F5FA67C6F8F83F2B6006F5FF26C4F8D5
:10324000D42F05F5FD2504F5FF24386006F2F47649
:103250001148316005F5FF6504F5FD642B602360BE
:10326000026002F01DFB3220FFF75EFF01F0E4FE7A
:103270004FF4AF70BDE8F840FFF756BF08E100E03B
:103280000480034014800340248003402C800340CA
:103290001C8003403480034000800B400C800340BE
:1032A000088003402DE9F84F214B1B6807460BB1FE
:1032B00001221A70DFF888901E4D99F80040DFF85F
:1032C00084801D4E01343F2C8ABF4FF0000A5FFA04
:1032D00084FA5446AB462B78A34216D1FFF798FDEB
:1032E00040281FDC33791B06F5D59BF800300133ED
:1032F0003F2B86BF00221346DAB218F80330DBB248
:10330000F3712A702B78A342E8D00C490A4BFFB224
:1033100008F804700120BC22087089F800A0DA7057
:10332000BDE8F88FFF28D6DDFFF7F6FCD3E700BF36
:10333000A498FF1FA198FF1F00A00640A098FF1FA0
:10334000A898FF1F1C98FF1F274A28491368F0B54B
:1033500043F4806313600A78254F264E264D274C90
:10336000274900233B7033702B7023700B70002AA9
:1033700035D0152A26D0234B1B78012B2AD0052BBC
:1033800003D1214B4FF451721A60204B204C21493C
:10339000C0F34436C0F347151E7000F01F005D7087
:1033A00004224FF0020E88273C26402598729A701E
:1033B0004FF4005083F813E05A751F74DE702570C7
:1033C0000860F0BD144B40F213321A600D4B1B78AD
:1033D000012BD4D1114B4FF451721A60D5E7104B29
:1033E00040F213321A60C6E7348004405C98FF1F35
:1033F0001898FF1F1998FF1FA898FF1FA198FF1F7B
:10340000A098FF1FBC8DFF1F1CC0044000A00640F9
:103410002DE400E004E100E018C0044044A00440B2
:1034200040A00440144B14499B7803F0EC0200F0D8
:1034300003031343420700F00F0248BF43F0100399
:10344000042A8B7013D00C4B0B4A5B79C10603F036
:10345000EF0348BF43F0100353719379820603F0E2
:10346000EF03054A48BF43F01003937170478B790F
:1034700043F040038B71E6E700A00640214B1B6838
:103480005B053ED510B5204C237823B1FFF744FCF3
:103490002378002BFAD11D481D4A1E4B4FF40054CF
:1034A00000210460D1701B78E3B1152B03D11A4BB6
:1034B00040F203121A60194B1B7803F07F03012BB3
:1034C0001AD0052B03D1164B40F203121A60154B8C
:1034D000154816491A68002303700B700AB10123BE
:1034E000137010BD124B40F203121A600B4B1B7885
:1034F00003F07F03012BE4D10E4B40F203121A605C
:10350000E5E7704734800440A098FF1F84E100E0A5
:1035100000A006405C98FF1F18C00440BC8DFF1F30
:103520001CC004401498FF1F1898FF1F1998FF1F14
:1035300040A0044044A004400A4A38B50546137828
:1035400003F0FF04002BFAD101212846FFF7C4FD48
:1035500021462846FFF7ACFD034A044B52F83520BC
:103560001A6038BDA098FF1FB4930000A498FF1FF5
:1035700009B140F08000174A1378984216D010B471
:10358000154C246864050FD503F07F03012B1CD074
:10359000052B11D0002900F07F0114BF60234423C4
:1035A00001290DD0052902D0107010BC70470B49BD
:1035B00043F440730B60F7E7084B00241C60E9E715
:1035C000074943F440730B60EEE7054B00241C6091
:1035D000E0E700BFBC8DFF1F348004401CC00440E6
:1035E00044A00440104B1A7882420AD00F4909685F
:1035F000490505D5AAB1152A09D068B1152801D009
:10360000187070470A4A40F213311160F8E7084A0F
:10361000002111600028F1D1064A40F213311160F7
:10362000EEE704490A60E8E75C98FF1F3480044035
:1036300018C0044040A004400D4B1B6813F4806385
:1036400005D0212805D90B4B00201860704718467B
:103650007047094B10B5074C53F8303023600121F7
:10366000FFF73AFD236800221A70012010BD00BF49
:10367000348004401498FF1FB49300000F4B1B6864
:1036800013F4806308D0122808D0142811D00C4AF3
:10369000537B03F0FE03537300207047094B40F245
:1036A00002321A60064A537B43F001035373012030
:1036B0007047054B40F202321A60F3E73480044051
:1036C00000A006400CA0044014C00440034B1B683B
:1036D0005B0501D5FFF7E6BD704700BF34800440AD
:1036E0002DE9F84F294B1B685A0548D5284B1B6814
:1036F00005460BB101221A7005EB010A554540D26F
:10370000DFF89C80234CDFF89C90234F0AE015F8EB
:10371000012B09F80B20214A0123AA45137088F8D0
:1037200000602ED098F80030227803F1010BBBF135
:103730003F0F86BF0026B3465FFA8BF69345E6D16E
:10374000BC22FA7005E03A7913060BD4227893452F
:10375000DDD1FFF75DFB4028F5DDFF28F6DDFFF743
:10376000DBFAF3E7227801323F2A86BF00210A46BE
:10377000D1B219F80220D2B2FA712170E6E7BDE8A1
:10378000F88F054BBC22DA70BDE8F88F3480044016
:10379000A498FF1FA198FF1F00A00640A098FF1F3C
:1037A000A898FF1F1C98FF1F10B5044C237823B165
:1037B000FFF7B2FA2378002BFAD110BDA098FF1FB3
:1037C000064A074B1B781078DBB2C0B283422CBF8D
:1037D0003F3000F1FF30C01A704700BFA198FF1FB3
:1037E000A898FF1F054A064B10781B78C0B2DBB2C1
:1037F000984238BF4030C01A704700BF1898FF1F6A
:103800001998FF1F30B4154B154C1A782378D2B293
:10381000DBB29A421ED001333F2B0ED91149124B15
:10382000087819680023C0B2237021B1D31A1A2B6B
:1038300001DC00230B7030BC70470A480A49C05CA9
:103840000968DDB2C0B225700029F4D09A4238BFB1
:103850004032EBE74FF0FF30EDE700BF1898FF1F55
:103860001998FF1F6098FF1F1498FF1F084A094B03
:1038700012781B78DBB29A4207D00133402B28BF65
:103880000023054AD05CC0B270474FF0FF3070474C
:103890001898FF1F1998FF1F6098FF1F0D4B1B689A
:1038A0005B0516D530B40C4B0C4CDA780C480D493E
:1038B00002F0CB024025DA705D74DA7842F034020F
:1038C000DA7023780268DBB20B700AB10023137040
:1038D00030BC70473480044000A006401998FF1F98
:1038E0001498FF1F1898FF1FF0B4384B1A7912F084
:1038F000300F2CD072B6997D01F0FF0200293DD027
:1039000062B6334F334938780D78334E1C46C0B217
:10391000EDB2431C402BE17928BF0023AB4202F1FA
:10392000FF32C9B21CBFF154184612F0FF02F0D1A9
:103930002A4B1B68C2B23A704BB1A84236BFC5F1E0
:103940004005401B40192728C4BF01221A701F4997
:10395000CA78D2B2150616D452060DD51B4B1B7968
:103960005B0609D51E4B1F491B6800220A7003B174
:103970001A70164B3C22DA70F0BC70474022D9799D
:103980005A7462B6E3E70B791C06E5D5164B174E61
:103990001C783378E4B2DBB29C420ED0144D01E0C7
:1039A000A3420AD00133402B28BF00230879E85CEA
:1039B000C0B2C871087D0728F2D9DBB20349337061
:1039C0000B79180644BF7C23CB70C5E700A00640E6
:1039D0001898FF1F1998FF1F6098FF1F1498FF1F6A
:1039E000A498FF1FA098FF1FA898FF1FA198FF1F72
:1039F0001C98FF1F274A28491368F0B543F4006359
:103A000013600A78254F264E264D274C2749002360
:103A1000092A3B7033702B7023700B7035D01A2A33
:103A200026D0234B1B780A2B2AD01F2B03D1214BE6
:103A30004FF451721A60204B204C2149C0F3443698
:103A4000C0F347151E7000F01F005D7004224FF098
:103A5000020E88273C26402598729A704FF4004049
:103A600083F813E05A751F74DE7025700860F0BD8E
:103A7000144B40F213321A600D4B1B780A2BD4D131
:103A8000114B4FF451721A60D5E7104B40F21332CC
:103A90001A60C6E734800440BD8DFF1F1C99FF1FCC
:103AA000B198FF1F2499FF1F1D99FF1FB098FF1F9A
:103AB000BE8DFF1F00D0044000B006402FE400E0A0
:103AC00004E100E004D0044010B004400CB0044015
:103AD000144B14499B7803F0EC0200F003031343EA
:103AE000420700F00F0248BF43F01003042A8B7016
:103AF00013D00C4B0B4A5B79C10603F0EF0348BFB0
:103B000043F0100353719379820603F0EF03054AE3
:103B100048BF43F01003937170478B7943F0400323
:103B20008B71E6E700B00640224B1B681B053FD5B2
:103B300010B5214C237823B1FFF7EEF82378002B42
:103B4000FAD11E481E4A1F4B4FF400440021046066
:103B5000D1701B78092B1CD01A2B03D11A4B40F2C1
:103B600003121A60194B1B7803F07F030A2B1AD03B
:103B70001F2B03D1164B40F203121A60154B164847
:103B800016491A68002303700B700AB101231370E1
:103B900010BD134B40F203121A600C4B1B7803F05C
:103BA0007F030A2BE4D10F4B40F203121A60E5E7C2
:103BB000704700BF34800440B098FF1F84E100E0EC
:103BC00000B00640BD8DFF1F04D00440BE8DFF1F16
:103BD00000D00440AC98FF1F1C99FF1FB198FF1F35
:103BE0000CB0044010B004400A4A38B505461378BA
:103BF00003F0FF04002BFAD101212846FFF76CFAED
:103C000021462846FFF754FA034A044B52F8352060
:103C10001A6038BDB098FF1FB49300002099FF1FB1
:103C200009B140F08000174A1378984216D010B4BA
:103C3000154C246824050FD503F07F030A2B1CD0F4
:103C40001F2B11D0002900F07F0114BF60234423F3
:103C50000A290DD01F2902D0107010BC70470B49E3
:103C600043F440730B60F7E7084B00241C60E9E75E
:103C7000074943F440730B60EEE7054B00241C60DA
:103C8000E0E700BFBE8DFF1F3480044000D0044039
:103C900010B00440124B1A7882420CD011490968C6
:103CA000090507D5092A16D01A2A0AD009280DD0E5
:103CB0001A2801D0187070470B4A40F21331116076
:103CC000F8E7094A002109281160F1D1074A40F2BA
:103CD00013311160EEE7054A00211160E6E700BFED
:103CE000BD8DFF1F3480044004D004400CB004405C
:103CF0000D4B1B6813F4006305D0212805D90B4B2D
:103D000000201860704718467047094B10B5074CE3
:103D100053F8303023600121FFF7DEF923680022D9
:103D20001A70012010BD00BF34800440AC98FF1F02
:103D3000B49300000C4B1B6813F4006306D01728E3
:103D400006D00A4A537B03F0FE03537300207047EA
:103D5000074B064A40F202311960537B43F00103DE
:103D600053730120704700BF3480044000B0064008
:103D700008B004402DE9F84F234B1B681A053BD5CA
:103D8000224B1B680BB101221A70DFF89090204D76
:103D900099F80040DFF888801E4E0134272C8ABF36
:103DA0004FF0000A5FFA84FA54460746AB462B7878
:103DB0009C4216D1FFF72CF840281FDC33791B06F4
:103DC000F5D59BF800300133272B86BF0022134620
:103DD000DAB218F80330DBB2F3712A702B789C4208
:103DE000E8D00D490B4BFFB20120BC2208F804704B
:103DF000087089F800A0DA70BDE8F88FFF28D6DDDA
:103E0000FEF78AFFD3E700BF348004402099FF1FEC
:103E10001D99FF1F00B00640B098FF1F2499FF1F97
:103E2000B498FF1F2DE9F84F294B1B681A0548D598
:103E3000284B1B6805460BB101221A7005EB010ADD
:103E4000554540D2DFF89C80234CDFF89C90234FEF
:103E50000AE015F8012B09F80B20214A0123AA4595
:103E6000137088F800602ED098F80030227803F1A3
:103E7000010BBBF1270F86BF0026B3465FFA8BF616
:103E80009345E6D1BC22FA7005E03A7913060BD4CB
:103E900022789345DDD1FEF7BBFF4028F5DDFF28F2
:103EA000F6DDFEF739FFF3E722780132272A86BFD5
:103EB00000210A46D1B219F80220D2B2FA7121705B
:103EC000E6E7BDE8F88F054BBC22DA70BDE8F88F55
:103ED000348004402099FF1F1D99FF1F00B0064049
:103EE000B098FF1F2499FF1FB498FF1F10B5044C12
:103EF000237823B1FEF710FF2378002BFAD110BDF1
:103F0000B098FF1F064A074B1B781078DBB2C0B28F
:103F100083422CBF273000F1FF30C01A704700BF2A
:103F20001D99FF1F2499FF1F054A064B10781B7827
:103F3000C0B2DBB2984238BF4030C01A704700BFF1
:103F40001C99FF1FB198FF1F30B4154B154C1A7800
:103F50002378D2B2DBB29A421ED001333F2B0ED966
:103F60001149124B087819680023C0B2237021B19F
:103F7000D31A1A2B01DC00230B7030BC70470A489F
:103F80000A49C05C0968DDB2C0B225700029F4D0CE
:103F90009A4238BF4032EBE74FF0FF30EDE700BF09
:103FA0001C99FF1FB198FF1FDC98FF1FAC98FF1FE3
:103FB000084A094B12781B78DBB29A4207D00133CA
:103FC000402B28BF0023054AD05CC0B270474FF099
:103FD000FF3070471C99FF1FB198FF1FDC98FF1F2F
:103FE0000D4B1B681B0516D530B40C4B0C4CDA7806
:103FF0000C480D4902F0CB024025DA705D74DA7886
:1040000042F03402DA7023780268DBB20B700AB136
:104010000023137030BC70473480044000B0064069
:10402000B198FF1FAC98FF1F1C99FF1FF0B4384BCD
:104030001A7912F0300F2CD072B6997D01F0FF0280
:1040400000293DD062B6334F334938780D78334E6E
:104050001C46C0B2EDB2431C402BE17928BF0023BF
:10406000AB4202F1FF32C9B21CBFF154184612F044
:10407000FF02F0D12A4B1B68C2B23A704BB1A84282
:1040800036BFC5F14005401B40192728C4BF012297
:104090001A701F49CA78D2B2150616D452060DD529
:1040A0001B4B1B795B0609D51E4B1F491B68002261
:1040B0000A7003B11A70164B3C22DA70F0BC7047DC
:1040C0004022D9795A7462B6E3E70B791C06E5D52C
:1040D000164B174E1C783378E4B2DBB29C420ED0FC
:1040E000144D01E0A3420AD00133282B28BF00233E
:1040F0000879E85CC0B2C871087D0728F2D9DBB244
:10410000034933700B79180644BF7C23CB70C5E795
:1041100000B006401C99FF1FB198FF1FDC98FF1FDD
:10412000AC98FF1F2099FF1FB098FF1F2499FF1F15
:104130001D99FF1FB498FF1F2DE9F84F214B1B68F5
:1041400007460BB101221A70DFF888901E4D99F8CE
:104150000040DFF884801D4E0134272C8ABF4FF0C9
:10416000000A5FFA84FA5446AB462B78A34216D174
:10417000FEF74EFE40281FDC33791B06F5D59BF871
:1041800000300133272B86BF00221346DAB218F81D
:104190000330DBB2F3712A702B78A342E8D00C49CC
:1041A0000A4BFFB208F804700120AC22087089F8AD
:1041B00000A0DA70BDE8F88FFF28D6DDFEF7ACFD71
:1041C000D3E700BF9C99FF1F9999FF1F00C00640CD
:1041D0009899FF1FA099FF1F3099FF1F184A19498E
:1041E0001368F0B543F48053174C184D184FDFF89F
:1041F00078E01360174E184A002323708EF80030C1
:10420000164C2B700B703B7040F213373760144D17
:104210001449C0F344364FF4517727601670C0F349
:1042200047142C2700F01F004026547090724FF462
:10423000003493701374D7702E700C60F0BD00BF03
:10424000348004409999FF1F2C99FF1FA099FF1FEC
:104250009899FF1F08C0044000C006400CC00440ED
:1042600031E400E004E100E02D99FF1F144B1449F4
:104270009B7803F0EC0200F003031343420700F0C5
:104280000F0248BF43F01003042A8B7013D00C4B6D
:104290000B4A5B79C10603F0EF0348BF43F01003FC
:1042A00053719379820603F0EF03054A48BF43F048
:1042B0001003937170478B7943F040038B71E6E7ED
:1042C00000C00640F8B5124B1B68DB041DD5114C2D
:1042D000237823B1FEF720FD2378002BFAD10E4B73
:1042E0000E4F0F4E0F4D104C104811494FF4003235
:1042F0001A600023FB7040F2031232602A602268C9
:1043000003700B7012B101231370F8BDF8BD00BF2C
:10431000348004409899FF1F84E100E000C006400B
:1043200008C004400CC004402899FF1F2C99FF1FAF
:104330002D99FF1F0A4A38B50546137803F0FF048C
:10434000002BFAD101212846FEF7C6FE2146284659
:10435000FEF7AEFE034A044B52F835201A6038BD12
:104360009899FF1FB49300009C99FF1F09B140F07A
:1043700080000F4A1378984219D010B40D4C24686D
:10438000E40412D503F07F03082B02D10A4B00246A
:104390001C60002900F07F0314BF60214421082B1A
:1043A00003D1054B41F440711960107010BC704787
:1043B000BF8DFF1F348004400CC00440704700BF15
:1043C0000D4B1B6813F4805305D0212805D90B4BE6
:1043D00000201860704718467047094B10B5074C0D
:1043E00053F8303023600121FEF776FE2368002267
:1043F0001A70012010BD00BF348004402899FF1FAF
:10440000B49300000C4B1B6813F4805306D00E28A5
:1044100006D00A4A537B03F0FE0353730020704713
:10442000074B064A40F202311960537B43F0010307
:1044300053730120704700BF3480044000C0064021
:1044400004C00440034B1B68DB0401D5FFF774BEB6
:10445000704700BF3480044070B5094E04464518CB
:10446000AC4204F101040AD03368DB04F8D514F837
:10447000010CFFF761FEAC4204F10104F4D170BD00
:104480003480044010B5044C237823B1FEF744FC7B
:104490002378002BFAD110BD9899FF1F064A074BCD
:1044A0001B781078DBB2C0B283422CBF273000F1FA
:1044B000FF30C01A704700BF9999FF1FA099FF1FD6
:1044C000054A064B10781B78C0B2DBB2984238BF61
:1044D0004030C01A704700BF2C99FF1F2D99FF1F55
:1044E00030B4154B154C1A782378D2B2DBB29A420D
:1044F0001ED001333F2B0ED91149124B0878196891
:104500000023C0B2237021B1D31A1A2B01DC00237F
:104510000B7030BC70470A480A49C05C0968DDB2BC
:10452000C0B225700029F4D09A4238BF4032EBE780
:104530004FF0FF30EDE700BF2C99FF1F2D99FF1FB3
:104540005899FF1F2899FF1F084A094B12781B78BA
:10455000DBB29A4207D00133402B28BF0023054A23
:10456000D05CC0B270474FF0FF3070472C99FF1FEE
:104570002D99FF1F5899FF1F054B064A1B780649C6
:104580001268DBB20B700AB100231370704700BFD2
:104590002D99FF1F2899FF1F2C99FF1F30B42B4B1B
:1045A0001A7994061FD52A48DA7903782949013304
:1045B0003F2B0978C8BF00238B42D2B203D0264CD0
:1045C000D9B2E2540170254A116861B1244A1278C7
:1045D000D2B2934236BFC2F140029B1A9B18272BDE
:1045E000C4BF01230B70194AD378DBB2180611D46B
:1045F0005A060DD5154B1B795B0609D5194B1A497F
:104600001B6800220A7003B11A70104B2C22DA705A
:1046100030BC704711790906EAD5144910480C7866
:104620000178C9B28C420DD04A1C272A84BF0021D0
:104630000A460F4D054C98BFD1B2AA5CD2B2E271C6
:104640000170D5E76C21D170D2E700BF00C00640F1
:104650002C99FF1F2D99FF1F5899FF1F2899FF1FA5
:104660009999FF1F9C99FF1F9899FF1FA099FF1F01
:104670003099FF1F431E032B14D872B60A4951F814
:10468000230068B170B4094C058834F813204668DB
:1046900041F82360521B24F8132062B670BC7047A7
:1046A00062B6704700207047FC99FF1F189BFF1FE0
:1046B000013803280BD872B6074B53F8203043B1AA
:1046C00000205B680130002BFBD162B670470020F0
:1046D00070471846F9E700BF509AFF1FF0B472B652
:1046E0001A491B4E012311F8014B194F9A00240758
:1046F00042F0010505D556F8324064B156F8352030
:10470000BAB10133052BEED162B6124B00221A70FA
:10471000F0BC00F00DBD0F4C0F4D217847F8325022
:1047200007EB431308304A1E5860227062B6F0BC93
:1047300070470849094B0A7847F8353007EBC5033D
:104740000830013A58600A7062B6F0E70896000037
:104750000080FF1F799AFF1F88004000C8004000BA
:10476000431E032B1DD81B4A400140F0100030B4FB
:10477000104472B6184CE25C032A1BD8DFE802F042
:104780000212151703220D88E25410F0080F14BF0F
:10479000C823882343EA054308310360416062B6B9
:1047A00030BC704708300222EDE70522EBE7083005
:1047B0000422E8E7094A52F8230038B1084A52F8BF
:1047C0002300416042F8231062B6E9E742F8231063
:1047D000034AF7E70080FF1F889AFF1F509AFF1FC8
:1047E000609AFF1F2DE9F04FDFF800A3DFF800B358
:1047F00087B044E0A84F4FEA930807EBC809013E91
:10480000D9F8042003F00803F6B2A2F1080003F07F
:10481000FF04002B40F0FC8057F838301B0C99B295
:1048200022F8081C002B00F0EA809C4B22F8064C72
:1048300042F8044C53F82620002A00F02982984DB3
:1048400055F826305860974C45F8260034F8163055
:10485000194424F8161000F04BFC002800F01182D7
:10486000914A924B19F0080F00F1080018BF134647
:10487000C9F8040047F8383008238AF800309AF85D
:104880000040E4B260071AD5894B1B78A3B189496F
:104890000A7802F0FF0322B1013BDBB20B7003B9CF
:1048A00000BE85490A7802F0FF032AB1013BDBB262
:1048B0000B70002B00F0BB8104238AF8003004F059
:1048C000080303F0FF02002B00F0C6809BF80030C5
:1048D000DBB21E098ED19C086F4F57F8342007EBCE
:1048E000C401C2F38302013A49680C2A00F28380B2
:1048F000DFE802F077778181818181814081818148
:10490000070008686D4B6E4D0193674B4A686D4E0A
:1049100047F8343081B240F28164684B6A602860A5
:1049200000220120A1421A603A61BA61307000F29F
:10493000E180B1F5D06F80F02582B1F5817F00F084
:10494000DE8100F2C181802900F03482822940F0AA
:10495000DC81A9885C4B042900F2D8815B4C89007A
:104960000B44227062701A78930740F12283207002
:10497000022023E2514B01931A683AB3544B514E33
:104980005449188834780D784028864645F0020846
:1049900028BF4FF0400E002C84F001043470CEEBA1
:1049A00000000CBF8824C82407EBC80680B285F03D
:1049B000010544EA0E447260188047F8384072449A
:1049C0000D70002800F0B780019B1A603C4B1A88DC
:1049D000B2F5A06F0FD100219A7859703E4B1A7032
:1049E00009E0374A108842F22102904200F0A88084
:1049F0002D4A47F83420394A012313703CE72A4AEC
:104A00002A4B19F0080F18BF134647F8383033E720
:104A100000F08EFB324A334952F82630002B00F06A
:104A20003B8158688C5D42F8260003F10802C9F802
:104A30000420032C05D8DFE804F02C0229260222EA
:104A40008A551A8819F0080F0CBF8823C82343EA37
:104A5000024347F838300FE7E00700F1EB8021060A
:104A600000F12881A20706D51F4A204913780220A9
:104A7000DBB213700870E30602D51C4B10221A70CB
:104A800007B0BDE8F08F04228A55DAE705228A557F
:104A9000D7E703228A55D4E70080FF1FFC99FF1F48
:104AA000A899FF1F189BFF1FC80040008800400006
:104AB000849AFF1F0D9AFF1F8C9AFF1FA499FF1F56
:104AC000709AFF1F0C9AFF1FC02007407C9AFF1F9F
:104AD000B899FF1F789AFF1F98200740942007403D
:104AE000509AFF1F889AFF1F8820074080200740A8
:104AF0009020074042F22104A14200F0948043D864
:104B0000B1F5086F00F0A881B1F5106F40F0FD809D
:104B1000B84AB94CA978117004F1800503E0083453
:104B2000AC4200F09E81236A1906F8D5606A083805
:104B300000F0FEFAF3E7BEF1400F18BF002243E792
:104B4000AE4ACD1D11F8013B02F8013FA942F9D14F
:104B5000AB4A1268862A00F01181AA49AA4E0A7847
:104B6000307882F00105002842F002020D700CBF7F
:104B70008821C82147F8321007EBC20280F00100FB
:104B800000213070516033E742F22124A14240F00D
:104B9000FE81DFF8BCC29D4B9D49AC78DCF800502B
:104BA0001D6081460C7000200290804684460446B9
:104BB00094490D7845F0020E07EBCE03B9F1000FD2
:104BC0005C600CBF8824C82444EA080385F0010413
:104BD00047F83E3032700C70DFF81CE28A4BDFF889
:104BE0002482002840F09880BCF1400F1BD144F093
:104BF000020407EBC403029FDFF8FCE15F60002AB8
:104C000040F09F80020442F0880207444EF83420AE
:104C100086F800900D703B46402804D100207D4A64
:104C2000019910800B607C4A01231370E3E600F0C9
:104C3000C7FB41E6704B784872491A614FF0020E8B
:104C400080F800E0754F0A70754919609960754EDB
:104C5000754D764C9A610D213970FF213170DFF866
:104C6000F4E129702270724D724A8EF800109F276D
:104C7000012406F8047C5D600470DA6007B0BDE8CA
:104C8000F08F6D4A47F83800137801331370F3E55D
:104C900043F82600694DD6E58B5D032B67D801A24A
:104CA00052F823F07948000079480000F94C0000E0
:104CB000F34C000059495C4B80220D2008701A709B
:104CC000A2077FF5D8AECFE640F20232914240F023
:104CD0005681A98801F07F01042916D86A88A2B9F3
:104CE0004E4C89000C448146217841F0020121702C
:104CF00059E701238B55BFE500238B55BCE5A988F7
:104D000001F07F01042940F24781444B0F221A70C1
:104D1000414A012313706EE640287FF668AF44F0E5
:104D200002040EEBC401029E4E60AAB1444A83F80D
:104D300000903346403888F8005040334EF8342015
:104D40006DE70204029B86F8009042F0C8020D70E5
:104D500003444EF834205FE783F80090029B304A0A
:104D600088F80050403840334EF8342057E719F0A7
:104D7000080F0CBF022303238B557DE5314A0F2119
:104D80001170EAE6304A5468002CBED06888B5F845
:104D900004E003E00C325468002CB6D01388834240
:104DA000F8D153887345F5D1000A03280CBF207849
:104DB000108903E0254C022022706270EA8882424A
:104DC00080F00C810F490D78402A45F0020E944680
:104DD00007EBCE0028BF4FF0400C04EB0C034460FF
:104DE0000293CCEB02004FEA0C484FF0010900227D
:104DF000C824E9E6849AFF1F0080FF1F1F9BFF1F46
:104E0000209BFF1F789AFF1F0C9AFF1F289BFF1FF4
:104E10009C9AFF1FB899FF1F94200740C0200740AD
:104E200088004000882007408020074098200740E5
:104E3000BC99FF1F109AFF1F799AFF1FA899FF1FA7
:104E4000C80040000D9AFF1F0C9600007C9AFF1FBF
:104E50001098FF1F8C200740684A694C1278227016
:104E6000ACE76849684B694A02916949694C6A4DE7
:104E7000039405964FF0000988461C461646049593
:104E8000206828B1456800F053F92846002DF9D173
:104E900000232360049B30681A46002342F829301F
:104EA00028B1456800F044F92846002DF9D10022C8
:104EB0003260029A98F800301146002241F8042B23
:104EC000039A0291023B4FF0000122F81910032BC4
:104ED00007D8DFE803F0340234024FF0010388F80A
:104EE000003009F10109B9F1040F04F1040406F1DD
:104EF000040608F10108C3D1484B059EDFF8309144
:104F0000DFF8308100211970012518F8013B09F8FC
:104F1000043B1A0718D4AC0044F0020244F0030426
:104F2000002347F8323047F834303D4B994505F1BE
:104F30000105EAD196F8009089F0010233E64FF0BE
:104F4000000388F80030CCE700F0D2F8AC0007EBA3
:104F5000451300F10802002837D05A60314B47F85A
:104F6000343000F0C5F844F0010307EBC30200F150
:104F7000080100B351602C4A47F83320CCE7B1F563
:104F8000A06F7FF4C2AE00224FF001090BE642F29F
:104F900021329142F7D0B8E66A88002A7FF4B5AE94
:104FA000224C89000C448146217821F002012170B5
:104FB000F9E5022002E7194B44F001021B7847F89B
:104FC0003200164A01331370A6E7144B134A1B78BC
:104FD000AC00013347F834001370C2E74028844620
:104FE00028BF4FF0400C04EB0C03CCEB00004FEA61
:104FF0000C48029300224FF00109D9E5849AFF1F63
:105000007C9AFF1F609AFF1FFC99FF1F509AFF1F99
:10501000889AFF1F189BFF1FA899FF1F799AFF1FEF
:10502000D420074088004000C8004000C02007404E
:10503000C4200740089600002DE9F843204C00F0FA
:105040009FFC002204F1880023461A605A6008334E
:1050500083424FF00001F8D11A4A1B4F13681B4DD1
:105060001B481C4EDFF87880DFF878C0DFF87890B6
:10507000DFF878E043F480231360C4F307233B7028
:10508000C4F307432B70240EFF2302F5283204706B
:10509000114D88F8003011488CF80030D43233704C
:1050A000012389F8003070268EF800104FF4007448
:1050B000102107F8183C2E7004601170BDE8F883C9
:1050C0000080FF1F348004409C200740B020074030
:1050D000B42007401020074049E400E008E100E068
:1050E0008020074088200740942007400021074087
:1050F00072B60D480268B2FA82F30B2B10DC4FF047
:105100000041D94022EA0102026062B6074803EB7F
:10511000C303DB00C2180021C15010465160704724
:1051200062B60020704700BFC08DFF1FBC83FF1F09
:105130000D4B0E4AC31AA2FB03231B090B2B0CD8E1
:105140000B4A127852B972B60A484FF00041026811
:1051500021FA03F31A43026062B67047064A1278D6
:10516000002AF0D0FFF7BABABC83FF1F398EE338AC
:10517000799AFF1FC08DFF1F849AFF1F38B50F4D0E
:10518000286878B143880288C118013393420C7AA9
:1051900002D24380204638BDFFF7CAFF00232046D5
:1051A0002B6038BD064B1B782BB10320FFF762FA4A
:1051B00028600028E6D14FF0FF3038BD989AFF1FD5
:1051C000849AFF1F10B5094C206818B14388184411
:1051D000007A10BD064B1B782BB10320FFF74AFA6B
:1051E00020600028F2D14FF0FF3010BD989AFF1FC9
:1051F000849AFF1F044B054A1B6890881BB11A88CC
:105200005B88D31A18447047989AFF1F189BFF1F9A
:105210000B4B1B789BB110B50A4C206848B1FFF7C7
:1052200087FF002303202360FFF724FA30B1FFF744
:105230007FFF0320FFF71EFA0028F8D110BD70474A
:10524000849AFF1F989AFF1F2DE9F04FDFF8F8901E
:1052500083B0012289F80020019169B3DFF8EC8066
:10526000364F019E8346D8F80000B0B3344D4488D1
:10527000C4F14001B14228BF314604EB010E0022C7
:105280001FFA8EFE2A70761AA0F802E000F10802DA
:1052900051B1013C224459441BF8014B02F8014F23
:1052A0008B45F9D1B0F802E0BEF13F0F0BD8254A8B
:1052B00005211170002ED6D10198002389F8003005
:1052C00003B0BDE8F08F4022028001460420FFF7C2
:1052D00047FA0022C8F80020E9E73A782AB3184DC7
:1052E0004AF2F9244FF0010A07E0013C16D02A786F
:1052F000A2B9FDF711FD3A78BAB10420FFF7D8F949
:105300000728F2D889F800A0FFF7F2FEC8F80000DD
:105310000028ACD10C4B013C1870E8D101234FF0B0
:10532000FF302B7003B0BDE8F08F00234FF0FF304B
:1053300089F8003003B0BDE8F08F00BF849AFF1FEA
:10534000949AFF1F8C9AFF1F8D9AFF1F909AFF1F40
:1053500000B583B002AB012103F8010D1846FFF739
:1053600073FF03B05DF804FBF8B5114B1B788BB1EC
:10537000104E114D346801272F7064B10F4A6388B5
:1053800000271770214623800420FFF7E9F93760D2
:1053900000232B70F8BDFFF7ABFE084B28B1014688
:1053A00004201C70FFF7DCF9F2E71F70F0E700BF84
:1053B000849AFF1F909AFF1F8D9AFF1F8C9AFF1FE0
:1053C00038B50E4B1B7873B90D4C216861B103F0F1
:1053D000FF054B880B800420FFF7C2F9256038BD1C
:1053E000084B01221A7038BDFFF782FE0028F7D063
:1053F0000146BDE838400420FFF7B2B98D9AFF1F7F
:10540000909AFF1F8C9AFF1F704700BFF8B50446A3
:1054100008462568174602F0A7FF294602F0EEFE6F
:105420000021064603F0B0F940B3304639466060CB
:1054300002F0EEFF4FF07E5102F0E2FE01464FF027
:105440007E5003F099F801464FF07E5002F0D6FEF0
:10545000014602F0D5FE4FF07E51074603F094F965
:1054600008B14FF07E573146384602F0D1FF294649
:1054700002F0C6FE206003F091F9F8BD06F100408D
:10548000D4E700BF0368C9B21B6818470368C9B2F4
:105490001B6818470368C9B21B6818470368C9B27C
:1054A0001B68184708B50846FEF710F9012008BD2B
:1054B00008B50846FEF70AF9012008BD38B50846C8
:1054C0000D4603F0BDFC044601462846FEF708F9E8
:1054D000204638BD10B5084614461146FEF700F9BF
:1054E000204610BDFEF76CB9FEF7D8B908B50846DE
:1054F000FEF7C4F8003018BF012008BD08B5084603
:10550000FEF79AF8003018BF012008BD0846114682
:10551000FEF72EB80846FEF765B800BF0846FEF74E
:105520000BB800BFFDF7AABF4B0803F1376000F5C9
:10553000D830B0FBF1F0FDF707BF00BF10B54B0846
:1055400003F13760144600F5D830B0FBF1F0FDF7F9
:10555000FBFE2046BDE81040FDF764BFFEF724B90E
:10556000FEF784B9FEF74EB9FEF73CB9704700BFAD
:10557000044B054A1A604FF47A71002299601A713F
:105580001A737047A09AFF1FCC94000008B5084614
:10559000FEF7F0FB012008BD08B50846FEF7EAFB60
:1055A000012008BD38B508460D4603F049FC044605
:1055B00001462846FEF736FC204638BD10B50846A1
:1055C00014461146FEF72EFC204610BDFEF79ABC8D
:1055D000FEF706BD08B50846FEF7ACFB003018BF65
:1055E000012008BD08B50846FEF782FB003018BF51
:1055F000012008BD08461146FEF712BB0846FEF71B
:1056000049BB00BF0846FEF7EFBA00BFFEF78CBAF1
:105610004B0803F1376000F5D830B0FBF1F0FEF72E
:10562000E9B900BF10B54B0803F13760144600F527
:10563000D830B0FBF1F0FEF7DDF92046BDE81040B0
:10564000FEF746BAFEF752BCFEF7B2BCFEF77CBCD2
:10565000FEF76ABC0368064A1B68934205D110B581
:10566000C8B2FEF787FB012010BDC9B2184700BFC2
:10567000995500000368064A1B68934205D110B58E
:10568000C8B2FEF777FB012010BDC9B2184700BFB2
:10569000995500000368064A1B68934205D110B56E
:1056A000C8B2FEF767FB012010BDC9B2184700BFA2
:1056B000995500000368064A1B68934205D110B54E
:1056C000C8B2FEF757FB012010BDC9B2184700BF92
:1056D00099550000704700BF044B054A1A604FF40B
:1056E0007A71002299601A711A737047B09AFF1F7D
:1056F0002C95000008B50846FEF7A4FE012008BD61
:1057000008B50846FEF79EFE012008BD38B50846DC
:105710000D4603F095FB044601462846FEF79CFE25
:10572000204638BD10B5084614461146FEF794FED3
:10573000204610BDFEF7B2BEFEF71EBF08B50846F4
:10574000FEF760FE003018BF012008BD08B508460E
:10575000FEF736FE003018BF012008BD084611468E
:10576000FEF704BE0846FEF729BE00BF0846FEF756
:10577000E1BD00BFFEF7A6BD4B0803F1B76000F521
:105780005840B0FBF1F0FEF729BD00BF10B54B0843
:1057900003F1B760144600F55840B0FBF1F0FEF796
:1057A0001DFD2046BDE81040FEF760BDFEF76ABE55
:1057B000FEF7CABEFEF794BEFEF782BE0368064A35
:1057C0001B68934205D110B5C8B2FEF73BFE01201D
:1057D00010BDC9B2184700BF015700000368064A50
:1057E0001B68934205D110B5C8B2FEF72BFE01200D
:1057F00010BDC9B2184700BF015700000368064A30
:105800001B68934205D110B5C8B2FEF71BFE0120FC
:1058100010BDC9B2184700BF015700000368064A0F
:105820001B68934205D110B5C8B2FEF70BFE0120EC
:1058300010BDC9B2184700BF01570000704700BF34
:10584000044B054A1A604FF47A71002299601A716C
:105850001A737047C09AFF1F8C950000FFF7D8BCE1
:10586000FFF782BDFFF7AEBCFFF788BCFFF7C2BCF5
:1058700008461146FFF7E8BC0846FFF769BD00BFC0
:10588000704700BF044B054A1A604FF47A7100223A
:1058900099601A711A737047D09AFF1FEC95000037
:1058A00030B42948294A2A4B2A4D6024E12104704A
:1058B00011701B78284C082B30D00A2B2748284918
:1058C00037D00C2B0CBF35223D2212232A602360D7
:1058D00002600B60234B24491B78244ABBB101238F
:1058E0000B601360224B23491B78234A012B26D9D6
:1058F000042B0FD9082B1ED9102B94BF8623872386
:105900000B6013601D4B01221A7030BC70470B6096
:105910001360E7E784230B601360F3E700F58E2044
:105920000F490830012213232A60236002600B60B4
:10593000D0E73922F7E785230B601360E2E7802385
:105940000B601360DEE700BF0040074001400740E6
:10595000C48DFF1F08B003400CB0034008B00B40DB
:105960000CB00B40E19AFF1F20B0034020B00B4069
:10597000C58DFF1F24B0034024B00B40E09AFF1FE9
:1059800070B584B072B6194B194D1A487022412671
:105990000F2480211A702E701A4604701970137823
:1059A0001B06FCD5144B186862B6144B144C984275
:1059B00098BF00EB800001A998BF40000A2200F0C8
:1059C00021F801A92046002311F8012B01333AB137
:1059D0000A2B20F8022FF7D11623237004B070BDD4
:1059E0005B00DBB2237004B070BD00BF000002405A
:1059F0000700024006000240080002407F9698001F
:105A0000548EFF1FF0B44D1E2E46002400E00134DA
:105A1000B0FBF2F302FB1300092800F130078ABF44
:105A20003730F8B2C0B206F8010F1846002BEED19D
:105A30000A1953704CB1107815F8016F28700133B2
:105A4000E01A834202F80169F5DB0846F0BC7047B2
:105A500030B51F4A21F00043934287B01BDD1D4A39
:105A6000934205DD02460B4601F0E8FE07B030BD6B
:105A700002AA00F009FD00F003000128DDE904237B
:105A80001AD002280FD0E0B1DDE9020100F0E0FFFA
:105A900001F10041EAE7002300930022002301F016
:105AA000F3FC07B030BD0124DDE90201009401F0F0
:105AB000EBFC01F10041D9E7DDE9020100F0C8FF8C
:105AC000D4E70124DDE90201009401F0DDFCCDE71B
:105AD000FB21E93FFFFFEF7F2DE9F043DFF8A480D2
